{
  "address": "0xda09BD6914938eD89D306A4311CDAa932826d1Fc",
  "abi": [
    {
      "inputs": [],
      "stateMutability": "nonpayable",
      "type": "constructor"
    },
    {
      "inputs": [
        {
          "internalType": "address",
          "name": "owner",
          "type": "address"
        }
      ],
      "name": "OwnableInvalidOwner",
      "type": "error"
    },
    {
      "inputs": [
        {
          "internalType": "address",
          "name": "account",
          "type": "address"
        }
      ],
      "name": "OwnableUnauthorizedAccount",
      "type": "error"
    },
    {
      "anonymous": false,
      "inputs": [
        {
          "indexed": true,
          "internalType": "bytes32",
          "name": "claimId",
          "type": "bytes32"
        },
        {
          "indexed": true,
          "internalType": "uint256",
          "name": "topic",
          "type": "uint256"
        },
        {
          "indexed": true,
          "internalType": "address",
          "name": "issuer",
          "type": "address"
        }
      ],
      "name": "ClaimAdded",
      "type": "event"
    },
    {
      "anonymous": false,
      "inputs": [
        {
          "indexed": true,
          "internalType": "address",
          "name": "previousOwner",
          "type": "address"
        },
        {
          "indexed": true,
          "internalType": "address",
          "name": "newOwner",
          "type": "address"
        }
      ],
      "name": "OwnershipTransferred",
      "type": "event"
    },
    {
      "inputs": [
        {
          "internalType": "uint256",
          "name": "topic",
          "type": "uint256"
        },
        {
          "internalType": "uint256",
          "name": "scheme",
          "type": "uint256"
        },
        {
          "internalType": "address",
          "name": "issuer",
          "type": "address"
        },
        {
          "internalType": "bytes",
          "name": "signature",
          "type": "bytes"
        },
        {
          "internalType": "bytes",
          "name": "data",
          "type": "bytes"
        },
        {
          "internalType": "string",
          "name": "uri",
          "type": "string"
        }
      ],
      "name": "addClaim",
      "outputs": [
        {
          "internalType": "bytes32",
          "name": "claimId",
          "type": "bytes32"
        }
      ],
      "stateMutability": "nonpayable",
      "type": "function"
    },
    {
      "inputs": [
        {
          "internalType": "bytes32",
          "name": "claimId",
          "type": "bytes32"
        }
      ],
      "name": "getClaim",
      "outputs": [
        {
          "internalType": "uint256",
          "name": "topic",
          "type": "uint256"
        },
        {
          "internalType": "uint256",
          "name": "scheme",
          "type": "uint256"
        },
        {
          "internalType": "address",
          "name": "issuer",
          "type": "address"
        },
        {
          "internalType": "bytes",
          "name": "signature",
          "type": "bytes"
        },
        {
          "internalType": "bytes",
          "name": "data",
          "type": "bytes"
        },
        {
          "internalType": "string",
          "name": "uri",
          "type": "string"
        }
      ],
      "stateMutability": "view",
      "type": "function"
    },
    {
      "inputs": [
        {
          "internalType": "uint256",
          "name": "topic",
          "type": "uint256"
        }
      ],
      "name": "getClaimsByTopic",
      "outputs": [
        {
          "internalType": "bytes32[]",
          "name": "",
          "type": "bytes32[]"
        }
      ],
      "stateMutability": "view",
      "type": "function"
    },
    {
      "inputs": [],
      "name": "owner",
      "outputs": [
        {
          "internalType": "address",
          "name": "",
          "type": "address"
        }
      ],
      "stateMutability": "view",
      "type": "function"
    },
    {
      "inputs": [],
      "name": "renounceOwnership",
      "outputs": [],
      "stateMutability": "nonpayable",
      "type": "function"
    },
    {
      "inputs": [
        {
          "internalType": "address",
          "name": "newOwner",
          "type": "address"
        }
      ],
      "name": "transferOwnership",
      "outputs": [],
      "stateMutability": "nonpayable",
      "type": "function"
    }
  ],
  "transactionHash": "0x07373f48f9e204bdb65a0f529d582911f9539cde18feb1a10ed65d69c7c234f8",
  "args": [],
  "numDeployments": 1,
  "solcInputHash": "d5be7365907d386c3eea16fd62324859",
  "bytecode": "0x608060405234801561001057600080fd5b50338061003757604051631e4fbdf760e01b81526000600482015260240160405180910390fd5b61004081610046565b50610096565b600080546001600160a01b038381166001600160a01b0319831681178455604051919092169283917f8be0079c531659141344cd1fd0a4f28419497f9722a3daafe3b4186f6b6457e09190a35050565b610a11806100a56000396000f3fe608060405234801561001057600080fd5b50600436106100625760003560e01c8063715018a6146100675780638da5cb5b14610071578063b1a34e0d14610093578063c9100bcb146100b4578063def8f83e146100d9578063f2fde38b146100f9575b600080fd5b61006f61010c565b005b6000546001600160a01b031660405161008a91906105d0565b60405180910390f35b6100a66100a13660046106b3565b610120565b60405190815260200161008a565b6100c76100c2366004610772565b610272565b60405161008a969594939291906107d1565b6100ec6100e7366004610772565b6104aa565b60405161008a9190610831565b61006f610107366004610875565b61050c565b610114610553565b61011e6000610580565b565b600061012a610553565b6040516001600160601b0319606087901b1660208201526034810188905260540160408051808303601f19018152828252805160209182012060c0840183528a84528184018a81526001600160a01b038a8116868601908152606087018b8152608088018b905260a088018a90526000858152600196879052969096208751815592519483019490945592516002820180546001600160a01b031916919094161790925591519193509060038201906101e3908261091b565b50608082015160048201906101f8908261091b565b5060a0820151600582019061020d908261091b565b50505060008781526002602090815260408083208054600181018255908452918320909101839055516001600160a01b03871691899184917f235613fdf4171f98d3169a8513cd2f260d8cf6746fc2764ac702f7d93b762a6e91a49695505050505050565b6000818152600160208181526040808420815160c08101835281548152938101549284019290925260028201546001600160a01b031690830152600381018054849384936060938493849387939092909183860191906102d190610890565b80601f01602080910402602001604051908101604052809291908181526020018280546102fd90610890565b801561034a5780601f1061031f5761010080835404028352916020019161034a565b820191906000526020600020905b81548152906001019060200180831161032d57829003601f168201915b5050505050815260200160048201805461036390610890565b80601f016020809104026020016040519081016040528092919081815260200182805461038f90610890565b80156103dc5780601f106103b1576101008083540402835291602001916103dc565b820191906000526020600020905b8154815290600101906020018083116103bf57829003601f168201915b505050505081526020016005820180546103f590610890565b80601f016020809104026020016040519081016040528092919081815260200182805461042190610890565b801561046e5780601f106104435761010080835404028352916020019161046e565b820191906000526020600020905b81548152906001019060200180831161045157829003601f168201915b5050509190925250508151602083015160408401516060850151608086015160a090960151939e929d50909b5099509297509550909350505050565b60008181526002602090815260409182902080548351818402810184019094528084526060939283018282801561050057602002820191906000526020600020905b8154815260200190600101908083116104ec575b50505050509050919050565b610514610553565b6001600160a01b038116610547576000604051631e4fbdf760e01b815260040161053e91906105d0565b60405180910390fd5b61055081610580565b50565b6000546001600160a01b0316331461011e573360405163118cdaa760e01b815260040161053e91906105d0565b600080546001600160a01b038381166001600160a01b0319831681178455604051919092169283917f8be0079c531659141344cd1fd0a4f28419497f9722a3daafe3b4186f6b6457e09190a35050565b6001600160a01b0391909116815260200190565b80356001600160a01b03811681146105fb57600080fd5b919050565b634e487b7160e01b600052604160045260246000fd5b600067ffffffffffffffff8084111561063157610631610600565b604051601f8501601f19908116603f0116810190828211818310171561065957610659610600565b8160405280935085815286868601111561067257600080fd5b858560208301376000602087830101525050509392505050565b600082601f83011261069d57600080fd5b6106ac83833560208501610616565b9392505050565b60008060008060008060c087890312156106cc57600080fd5b86359550602087013594506106e3604088016105e4565b9350606087013567ffffffffffffffff8082111561070057600080fd5b61070c8a838b0161068c565b9450608089013591508082111561072257600080fd5b61072e8a838b0161068c565b935060a089013591508082111561074457600080fd5b508701601f8101891361075657600080fd5b61076589823560208401610616565b9150509295509295509295565b60006020828403121561078457600080fd5b5035919050565b6000815180845260005b818110156107b157602081850181015186830182015201610795565b506000602082860101526020601f19601f83011685010191505092915050565b86815285602082015260018060a01b038516604082015260c0606082015260006107fe60c083018661078b565b8281036080840152610810818661078b565b905082810360a0840152610824818561078b565b9998505050505050505050565b6020808252825182820181905260009190848201906040850190845b818110156108695783518352928401929184019160010161084d565b50909695505050505050565b60006020828403121561088757600080fd5b6106ac826105e4565b600181811c908216806108a457607f821691505b6020821081036108c457634e487b7160e01b600052602260045260246000fd5b50919050565b601f821115610916576000816000526020600020601f850160051c810160208610156108f35750805b601f850160051c820191505b81811015610912578281556001016108ff565b5050505b505050565b815167ffffffffffffffff81111561093557610935610600565b610949816109438454610890565b846108ca565b602080601f83116001811461097e57600084156109665750858301515b600019600386901b1c1916600185901b178555610912565b600085815260208120601f198616915b828110156109ad5788860151825594840194600190910190840161098e565b50858210156109cb5787850151600019600388901b60f8161c191681555b5050505050600190811b0190555056fea2646970667358221220617f66cf53839872c11c02b6e2ed36b6e24711abfd95d02220b2fb8ff6bd845564736f6c63430008180033",
  "devdoc": {
    "details": "Basado en ERC-735 para la identidad de activos RWA.",
    "errors": {
      "OwnableInvalidOwner(address)": [
        {
          "details": "The owner is not a valid owner account. (eg. `address(0)`)"
        }
      ],
      "OwnableUnauthorizedAccount(address)": [
        {
          "details": "The caller account is not authorized to perform an operation."
        }
      ]
    },
    "kind": "dev",
    "methods": {
      "addClaim(uint256,uint256,address,bytes,bytes,string)": {
        "details": "Registra el reclamo que contiene el hash de los metadatos de la factura. El parámetro '_data' debe ser el keccak256 de los campos privados."
      },
      "owner()": {
        "details": "Returns the address of the current owner."
      },
      "renounceOwnership()": {
        "details": "Leaves the contract without owner. It will not be possible to call `onlyOwner` functions. Can only be called by the current owner. NOTE: Renouncing ownership will leave the contract without an owner, thereby disabling any functionality that is only available to the owner."
      },
      "transferOwnership(address)": {
        "details": "Transfers ownership of the contract to a new account (`newOwner`). Can only be called by the current owner."
      }
    },
    "title": "InvoiceIdentity (Asset Golden Copy)",
    "version": 1
  },
  "userdoc": {
    "kind": "user",
    "methods": {},
    "version": 1
  },
  "storageLayout": {
    "storage": [
      {
        "astId": 8,
        "contract": "contracts/ONCHAINID/ERC-735.sol:ClaimsIdentity",
        "label": "_owner",
        "offset": 0,
        "slot": "0",
        "type": "t_address"
      },
      {
        "astId": 1030,
        "contract": "contracts/ONCHAINID/ERC-735.sol:ClaimsIdentity",
        "label": "_claims",
        "offset": 0,
        "slot": "1",
        "type": "t_mapping(t_bytes32,t_struct(Claim)1025_storage)"
      },
      {
        "astId": 1035,
        "contract": "contracts/ONCHAINID/ERC-735.sol:ClaimsIdentity",
        "label": "_claimsByTopic",
        "offset": 0,
        "slot": "2",
        "type": "t_mapping(t_uint256,t_array(t_bytes32)dyn_storage)"
      }
    ],
    "types": {
      "t_address": {
        "encoding": "inplace",
        "label": "address",
        "numberOfBytes": "20"
      },
      "t_array(t_bytes32)dyn_storage": {
        "base": "t_bytes32",
        "encoding": "dynamic_array",
        "label": "bytes32[]",
        "numberOfBytes": "32"
      },
      "t_bytes32": {
        "encoding": "inplace",
        "label": "bytes32",
        "numberOfBytes": "32"
      },
      "t_bytes_storage": {
        "encoding": "bytes",
        "label": "bytes",
        "numberOfBytes": "32"
      },
      "t_mapping(t_bytes32,t_struct(Claim)1025_storage)": {
        "encoding": "mapping",
        "key": "t_bytes32",
        "label": "mapping(bytes32 => struct ClaimsIdentity.Claim)",
        "numberOfBytes": "32",
        "value": "t_struct(Claim)1025_storage"
      },
      "t_mapping(t_uint256,t_array(t_bytes32)dyn_storage)": {
        "encoding": "mapping",
        "key": "t_uint256",
        "label": "mapping(uint256 => bytes32[])",
        "numberOfBytes": "32",
        "value": "t_array(t_bytes32)dyn_storage"
      },
      "t_string_storage": {
        "encoding": "bytes",
        "label": "string",
        "numberOfBytes": "32"
      },
      "t_struct(Claim)1025_storage": {
        "encoding": "inplace",
        "label": "struct ClaimsIdentity.Claim",
        "members": [
          {
            "astId": 1014,
            "contract": "contracts/ONCHAINID/ERC-735.sol:ClaimsIdentity",
            "label": "topic",
            "offset": 0,
            "slot": "0",
            "type": "t_uint256"
          },
          {
            "astId": 1016,
            "contract": "contracts/ONCHAINID/ERC-735.sol:ClaimsIdentity",
            "label": "scheme",
            "offset": 0,
            "slot": "1",
            "type": "t_uint256"
          },
          {
            "astId": 1018,
            "contract": "contracts/ONCHAINID/ERC-735.sol:ClaimsIdentity",
            "label": "issuer",
            "offset": 0,
            "slot": "2",
            "type": "t_address"
          },
          {
            "astId": 1020,
            "contract": "contracts/ONCHAINID/ERC-735.sol:ClaimsIdentity",
            "label": "signature",
            "offset": 0,
            "slot": "3",
            "type": "t_bytes_storage"
          },
          {
            "astId": 1022,
            "contract": "contracts/ONCHAINID/ERC-735.sol:ClaimsIdentity",
            "label": "data",
            "offset": 0,
            "slot": "4",
            "type": "t_bytes_storage"
          },
          {
            "astId": 1024,
            "contract": "contracts/ONCHAINID/ERC-735.sol:ClaimsIdentity",
            "label": "uri",
            "offset": 0,
            "slot": "5",
            "type": "t_string_storage"
          }
        ],
        "numberOfBytes": "192"
      },
      "t_uint256": {
        "encoding": "inplace",
        "label": "uint256",
        "numberOfBytes": "32"
      }
    }
  }
}