{
  "address": "0x8e0B44e4fD64508CcD7F5DA50F95882C1001c5a6",
  "abi": [
    {
      "inputs": [],
      "stateMutability": "nonpayable",
      "type": "constructor"
    },
    {
      "inputs": [],
      "name": "ECDSAInvalidSignature",
      "type": "error"
    },
    {
      "inputs": [
        {
          "internalType": "uint256",
          "name": "length",
          "type": "uint256"
        }
      ],
      "name": "ECDSAInvalidSignatureLength",
      "type": "error"
    },
    {
      "inputs": [
        {
          "internalType": "bytes32",
          "name": "s",
          "type": "bytes32"
        }
      ],
      "name": "ECDSAInvalidSignatureS",
      "type": "error"
    },
    {
      "inputs": [],
      "name": "InvalidEntityType",
      "type": "error"
    },
    {
      "inputs": [
        {
          "internalType": "address",
          "name": "userAddress",
          "type": "address"
        },
        {
          "internalType": "enum EVS.EntityType",
          "name": "role",
          "type": "uint8"
        },
        {
          "internalType": "uint256",
          "name": "topic",
          "type": "uint256"
        }
      ],
      "name": "NotMetRequirements",
      "type": "error"
    },
    {
      "inputs": [
        {
          "internalType": "address",
          "name": "issuerAddress",
          "type": "address"
        },
        {
          "internalType": "address",
          "name": "userAddress",
          "type": "address"
        },
        {
          "internalType": "uint256",
          "name": "topic",
          "type": "uint256"
        }
      ],
      "name": "NotSignedByIssuer",
      "type": "error"
    },
    {
      "inputs": [
        {
          "internalType": "address",
          "name": "owner",
          "type": "address"
        }
      ],
      "name": "OwnableInvalidOwner",
      "type": "error"
    },
    {
      "inputs": [
        {
          "internalType": "address",
          "name": "account",
          "type": "address"
        }
      ],
      "name": "OwnableUnauthorizedAccount",
      "type": "error"
    },
    {
      "inputs": [
        {
          "internalType": "address",
          "name": "userAddress",
          "type": "address"
        }
      ],
      "name": "UserNotRegistered",
      "type": "error"
    },
    {
      "anonymous": false,
      "inputs": [
        {
          "indexed": true,
          "internalType": "address",
          "name": "previousOwner",
          "type": "address"
        },
        {
          "indexed": true,
          "internalType": "address",
          "name": "newOwner",
          "type": "address"
        }
      ],
      "name": "OwnershipTransferred",
      "type": "event"
    },
    {
      "anonymous": false,
      "inputs": [
        {
          "indexed": true,
          "internalType": "address",
          "name": "userAddress",
          "type": "address"
        },
        {
          "indexed": false,
          "internalType": "enum EVS.EntityType",
          "name": "role",
          "type": "uint8"
        },
        {
          "indexed": false,
          "internalType": "uint256[]",
          "name": "topics",
          "type": "uint256[]"
        }
      ],
      "name": "RoleRequirementsSet",
      "type": "event"
    },
    {
      "anonymous": false,
      "inputs": [
        {
          "indexed": true,
          "internalType": "address",
          "name": "userAddress",
          "type": "address"
        },
        {
          "indexed": false,
          "internalType": "address",
          "name": "identityAddress",
          "type": "address"
        }
      ],
      "name": "newIdentityRegistered",
      "type": "event"
    },
    {
      "anonymous": false,
      "inputs": [
        {
          "indexed": true,
          "internalType": "address",
          "name": "issuerAddress",
          "type": "address"
        },
        {
          "indexed": false,
          "internalType": "bool",
          "name": "trusted",
          "type": "bool"
        }
      ],
      "name": "newTrustedIssuer",
      "type": "event"
    },
    {
      "inputs": [
        {
          "internalType": "uint256",
          "name": "_topic",
          "type": "uint256"
        }
      ],
      "name": "addClaimTopic",
      "outputs": [],
      "stateMutability": "nonpayable",
      "type": "function"
    },
    {
      "inputs": [
        {
          "internalType": "address",
          "name": "_user",
          "type": "address"
        },
        {
          "internalType": "address",
          "name": "_identity",
          "type": "address"
        },
        {
          "internalType": "enum EVS.EntityType",
          "name": "_role",
          "type": "uint8"
        }
      ],
      "name": "addIdentityToStorage",
      "outputs": [],
      "stateMutability": "nonpayable",
      "type": "function"
    },
    {
      "inputs": [
        {
          "internalType": "address",
          "name": "_issuer",
          "type": "address"
        }
      ],
      "name": "addTrustedIssuer",
      "outputs": [],
      "stateMutability": "nonpayable",
      "type": "function"
    },
    {
      "inputs": [],
      "name": "getClaimTopics",
      "outputs": [
        {
          "internalType": "uint256[]",
          "name": "",
          "type": "uint256[]"
        }
      ],
      "stateMutability": "view",
      "type": "function"
    },
    {
      "inputs": [
        {
          "internalType": "address",
          "name": "_userAddress",
          "type": "address"
        }
      ],
      "name": "isVerified",
      "outputs": [
        {
          "internalType": "enum EVS.EntityType",
          "name": "role",
          "type": "uint8"
        },
        {
          "internalType": "bool",
          "name": "verified",
          "type": "bool"
        }
      ],
      "stateMutability": "nonpayable",
      "type": "function"
    },
    {
      "inputs": [],
      "name": "owner",
      "outputs": [
        {
          "internalType": "address",
          "name": "",
          "type": "address"
        }
      ],
      "stateMutability": "view",
      "type": "function"
    },
    {
      "inputs": [],
      "name": "renounceOwnership",
      "outputs": [],
      "stateMutability": "nonpayable",
      "type": "function"
    },
    {
      "inputs": [
        {
          "internalType": "enum EVS.EntityType",
          "name": "_type",
          "type": "uint8"
        },
        {
          "internalType": "uint256[]",
          "name": "_topics",
          "type": "uint256[]"
        }
      ],
      "name": "setRoleRequirements",
      "outputs": [],
      "stateMutability": "nonpayable",
      "type": "function"
    },
    {
      "inputs": [
        {
          "internalType": "address",
          "name": "newOwner",
          "type": "address"
        }
      ],
      "name": "transferOwnership",
      "outputs": [],
      "stateMutability": "nonpayable",
      "type": "function"
    }
  ],
  "transactionHash": "0x72779dde3b5c8f0a950862690c50020de1f19f1b2e9376e740fec1967d226f2f",
  "args": [],
  "numDeployments": 1,
  "solcInputHash": "a08549f897f9e7db52d1916f3488d1ca",
  "bytecode": "0x608060405234801561001057600080fd5b50338061003757604051631e4fbdf760e01b81526000600482015260240160405180910390fd5b61004081610046565b50610096565b600080546001600160a01b038381166001600160a01b0319831681178455604051919092169283917f8be0079c531659141344cd1fd0a4f28419497f9722a3daafe3b4186f6b6457e09190a35050565b610fd9806100a56000396000f3fe608060405234801561001057600080fd5b50600436106100835760003560e01c80635220b75114610088578063715018a61461009d5780638da5cb5b146100a557806390bd9599146100c7578063b9209e33146100da578063c4566bdd146100fb578063c7b225511461010e578063df09d60414610121578063f2fde38b14610136575b600080fd5b61009b610096366004610acc565b610149565b005b61009b610200565b6000546001600160a01b03166040516100be9190610b13565b60405180910390f35b61009b6100d5366004610b90565b610214565b6100ed6100e8366004610c38565b610273565b6040516100be929190610c8d565b61009b610109366004610c38565b6103f8565b61009b61011c366004610caa565b61045d565b61012961049a565b6040516100be9190610cff565b61009b610144366004610c38565b6104f2565b610151610530565b61015a8161055d565b6001600160a01b03838116600090815260046020818152604080842080546001600160a01b031916958816959095179094556001908190529290912080548493919260ff19909116919084908111156101b5576101b5610c55565b0217905550826001600160a01b03167fb5c59e8b8465c30e4c52266c37ff1ccb8a6299af6310b7ea7e9426a535650601836040516101f39190610b13565b60405180910390a2505050565b610208610530565b61021260006105ae565b565b61021c610530565b6102258261055d565b806002600084600481111561023c5761023c610c55565b600481111561024d5761024d610c55565b8152602001908152602001600020908051906020019061026e929190610a43565b505050565b6001600160a01b038082166000908152600460205260408120549091829116806102bb5783604051635713986560e11b81526004016102b29190610b13565b60405180910390fd5b6001600160a01b03841660009081526001602052604090205460ff166102e08161055d565b6000600260008360048111156102f8576102f8610c55565b600481111561030957610309610c55565b815260200190815260200160002080548060200260200160405190810160405280929190818152602001828054801561036157602002820191906000526020600020905b81548152602001906001019080831161034d575b50505050509050600083905060005b82518110156103a65761039e82898686858151811061039157610391610d12565b60200260200101516105fe565b600101610370565b50866001600160a01b03167f3ec591b29ae2f0a96fa445ae770bcf922485091d5d90e427710e57337dd4c70584846040516103e2929190610d28565b60405180910390a2509095600195509350505050565b610400610530565b6001600160a01b038116600081815260056020908152604091829020805460ff1916600190811790915591519182527f5fc8e7f41ad72db162bcb121c4f78630b5abe042a09c8495aa5d11dede988769910160405180910390a250565b610465610530565b600380546001810182556000919091527fc2575a0e9e593c00f959f8c92f12db2869c3395a3b0502d05e2516446f71f85b0155565b606060038054806020026020016040519081016040528092919081815260200182805480156104e857602002820191906000526020600020905b8154815260200190600101908083116104d4575b5050505050905090565b6104fa610530565b6001600160a01b038116610524576000604051631e4fbdf760e01b81526004016102b29190610b13565b61052d816105ae565b50565b6000546001600160a01b03163314610212573360405163118cdaa760e01b81526004016102b29190610b13565b600081600481111561057157610571610c55565b148061059057506004818181111561058b5761058b610c55565b60ff16115b1561052d57604051631deade6d60e21b815260040160405180910390fd5b600080546001600160a01b038381166001600160a01b0319831681178455604051919092169283917f8be0079c531659141344cd1fd0a4f28419497f9722a3daafe3b4186f6b6457e09190a35050565b604051636f7c7c1f60e11b8152600481018290526000906001600160a01b0386169063def8f83e90602401600060405180830381865afa158015610646573d6000803e3d6000fd5b505050506040513d6000823e601f3d908101601f1916820160405261066e9190810190610d50565b90508051600003610698578383836040516392c5785d60e01b81526004016102b293929190610de0565b60005b81518110156107c0576000806000886001600160a01b031663c9100bcb8686815181106106ca576106ca610d12565b60200260200101516040518263ffffffff1660e01b81526004016106f091815260200190565b600060405180830381865afa15801561070d573d6000803e3d6000fd5b505050506040513d6000823e601f3d908101601f191682016040526107359190810190610e9d565b506001600160a01b038316600090815260056020526040902054929750909550935060ff161591506107b590505760006107708483856107e6565b9050806107aa5760405163316c16fd60e01b81526001600160a01b0380861660048301528a166024820152604481018890526064016102b2565b5050505050506107e0565b50505060010161069b565b508383836040516392c5785d60e01b81526004016102b293929190610de0565b50505050565b600082516020146107f957506000610843565b60008360405160200161080c9190610f5e565b6040516020818303038152906040528051906020012090506000610830828561084a565b6001600160a01b03878116911614925050505b9392505050565b60008060008061085a8686610874565b92509250925061086a82826108c1565b5090949350505050565b600080600083516041036108ae5760208401516040850151606086015160001a6108a08882858561097e565b9550955095505050506108ba565b50508151600091506002905b9250925092565b60008260038111156108d5576108d5610c55565b036108de575050565b60018260038111156108f2576108f2610c55565b036109105760405163f645eedf60e01b815260040160405180910390fd5b600282600381111561092457610924610c55565b036109455760405163fce698f760e01b8152600481018290526024016102b2565b600382600381111561095957610959610c55565b0361097a576040516335e2f38360e21b8152600481018290526024016102b2565b5050565b600080806fa2a8918ca85bafe22016d0b997e4df60600160ff1b038411156109af5750600091506003905082610a39565b604080516000808252602082018084528a905260ff891692820192909252606081018790526080810186905260019060a0016020604051602081039080840390855afa158015610a03573d6000803e3d6000fd5b5050604051601f1901519150506001600160a01b038116610a2f57506000925060019150829050610a39565b9250600091508190505b9450945094915050565b828054828255906000526020600020908101928215610a7e579160200282015b82811115610a7e578251825591602001919060010190610a63565b50610a8a929150610a8e565b5090565b5b80821115610a8a5760008155600101610a8f565b6001600160a01b038116811461052d57600080fd5b803560058110610ac757600080fd5b919050565b600080600060608486031215610ae157600080fd5b8335610aec81610aa3565b92506020840135610afc81610aa3565b9150610b0a60408501610ab8565b90509250925092565b6001600160a01b0391909116815260200190565b634e487b7160e01b600052604160045260246000fd5b604051601f8201601f191681016001600160401b0381118282101715610b6557610b65610b27565b604052919050565b60006001600160401b03821115610b8657610b86610b27565b5060051b60200190565b60008060408385031215610ba357600080fd5b610bac83610ab8565b91506020808401356001600160401b03811115610bc857600080fd5b8401601f81018613610bd957600080fd5b8035610bec610be782610b6d565b610b3d565b81815260059190911b82018301908381019088831115610c0b57600080fd5b928401925b82841015610c2957833582529284019290840190610c10565b80955050505050509250929050565b600060208284031215610c4a57600080fd5b813561084381610aa3565b634e487b7160e01b600052602160045260246000fd5b60058110610c8957634e487b7160e01b600052602160045260246000fd5b9052565b60408101610c9b8285610c6b565b82151560208301529392505050565b600060208284031215610cbc57600080fd5b5035919050565b60008151808452602080850194506020840160005b83811015610cf457815187529582019590820190600101610cd8565b509495945050505050565b6020815260006108436020830184610cc3565b634e487b7160e01b600052603260045260246000fd5b610d328184610c6b565b604060208201526000610d486040830184610cc3565b949350505050565b60006020808385031215610d6357600080fd5b82516001600160401b03811115610d7957600080fd5b8301601f81018513610d8a57600080fd5b8051610d98610be782610b6d565b81815260059190911b82018301908381019087831115610db757600080fd5b928401925b82841015610dd557835182529284019290840190610dbc565b979650505050505050565b6001600160a01b038416815260608101610dfd6020830185610c6b565b826040830152949350505050565b60005b83811015610e26578181015183820152602001610e0e565b50506000910152565b60006001600160401b03831115610e4857610e48610b27565b610e5b601f8401601f1916602001610b3d565b9050828152838383011115610e6f57600080fd5b610843836020830184610e0b565b600082601f830112610e8e57600080fd5b61084383835160208501610e2f565b60008060008060008060c08789031215610eb657600080fd5b86519550602087015194506040870151610ecf81610aa3565b60608801519094506001600160401b0380821115610eec57600080fd5b610ef88a838b01610e7d565b94506080890151915080821115610f0e57600080fd5b610f1a8a838b01610e7d565b935060a0890151915080821115610f3057600080fd5b508701601f81018913610f4257600080fd5b610f5189825160208401610e2f565b9150509295509295509295565b7f19457468657265756d205369676e6564204d6573736167653a0a333200000000815260008251610f9681601c850160208701610e0b565b91909101601c019291505056fea2646970667358221220156ea0c1bf5f14f43fe83de12a84c28dc72c75644cc3c2036de5cb2aaf832de764736f6c63430008180033",
  "devdoc": {
    "errors": {
      "ECDSAInvalidSignature()": [
        {
          "details": "The signature is invalid."
        }
      ],
      "ECDSAInvalidSignatureLength(uint256)": [
        {
          "details": "The signature has an invalid length."
        }
      ],
      "ECDSAInvalidSignatureS(bytes32)": [
        {
          "details": "The signature has an S value that is in the upper half order."
        }
      ],
      "OwnableInvalidOwner(address)": [
        {
          "details": "The owner is not a valid owner account. (eg. `address(0)`)"
        }
      ],
      "OwnableUnauthorizedAccount(address)": [
        {
          "details": "The caller account is not authorized to perform an operation."
        }
      ]
    },
    "kind": "dev",
    "methods": {
      "isVerified(address)": {
        "details": "Implementación de isVerified que orquesta la consulta a los datos internos [9], [10]."
      },
      "owner()": {
        "details": "Returns the address of the current owner."
      },
      "renounceOwnership()": {
        "details": "Leaves the contract without owner. It will not be possible to call `onlyOwner` functions. Can only be called by the current owner. NOTE: Renouncing ownership will leave the contract without an owner, thereby disabling any functionality that is only available to the owner."
      },
      "setRoleRequirements(uint8,uint256[])": {
        "details": "Configura qué claims (topics) son obligatorios para cada rol."
      },
      "transferOwnership(address)": {
        "details": "Transfers ownership of the contract to a new account (`newOwner`). Can only be called by the current owner."
      }
    },
    "version": 1
  },
  "userdoc": {
    "kind": "user",
    "methods": {},
    "version": 1
  },
  "storageLayout": {
    "storage": [
      {
        "astId": 8,
        "contract": "contracts/EligibilityVerificationSystem/IdentityRegistry.sol:EVS",
        "label": "_owner",
        "offset": 0,
        "slot": "0",
        "type": "t_address"
      },
      {
        "astId": 654,
        "contract": "contracts/EligibilityVerificationSystem/IdentityRegistry.sol:EVS",
        "label": "_entityTypes",
        "offset": 0,
        "slot": "1",
        "type": "t_mapping(t_address,t_enum(EntityType)649)"
      },
      {
        "astId": 660,
        "contract": "contracts/EligibilityVerificationSystem/IdentityRegistry.sol:EVS",
        "label": "_roleRequirements",
        "offset": 0,
        "slot": "2",
        "type": "t_mapping(t_enum(EntityType)649,t_array(t_uint256)dyn_storage)"
      },
      {
        "astId": 663,
        "contract": "contracts/EligibilityVerificationSystem/IdentityRegistry.sol:EVS",
        "label": "_claimTopics",
        "offset": 0,
        "slot": "3",
        "type": "t_array(t_uint256)dyn_storage"
      },
      {
        "astId": 667,
        "contract": "contracts/EligibilityVerificationSystem/IdentityRegistry.sol:EVS",
        "label": "_storedIdentities",
        "offset": 0,
        "slot": "4",
        "type": "t_mapping(t_address,t_address)"
      },
      {
        "astId": 671,
        "contract": "contracts/EligibilityVerificationSystem/IdentityRegistry.sol:EVS",
        "label": "_trustedIssuers",
        "offset": 0,
        "slot": "5",
        "type": "t_mapping(t_address,t_bool)"
      }
    ],
    "types": {
      "t_address": {
        "encoding": "inplace",
        "label": "address",
        "numberOfBytes": "20"
      },
      "t_array(t_uint256)dyn_storage": {
        "base": "t_uint256",
        "encoding": "dynamic_array",
        "label": "uint256[]",
        "numberOfBytes": "32"
      },
      "t_bool": {
        "encoding": "inplace",
        "label": "bool",
        "numberOfBytes": "1"
      },
      "t_enum(EntityType)649": {
        "encoding": "inplace",
        "label": "enum EVS.EntityType",
        "numberOfBytes": "1"
      },
      "t_mapping(t_address,t_address)": {
        "encoding": "mapping",
        "key": "t_address",
        "label": "mapping(address => address)",
        "numberOfBytes": "32",
        "value": "t_address"
      },
      "t_mapping(t_address,t_bool)": {
        "encoding": "mapping",
        "key": "t_address",
        "label": "mapping(address => bool)",
        "numberOfBytes": "32",
        "value": "t_bool"
      },
      "t_mapping(t_address,t_enum(EntityType)649)": {
        "encoding": "mapping",
        "key": "t_address",
        "label": "mapping(address => enum EVS.EntityType)",
        "numberOfBytes": "32",
        "value": "t_enum(EntityType)649"
      },
      "t_mapping(t_enum(EntityType)649,t_array(t_uint256)dyn_storage)": {
        "encoding": "mapping",
        "key": "t_enum(EntityType)649",
        "label": "mapping(enum EVS.EntityType => uint256[])",
        "numberOfBytes": "32",
        "value": "t_array(t_uint256)dyn_storage"
      },
      "t_uint256": {
        "encoding": "inplace",
        "label": "uint256",
        "numberOfBytes": "32"
      }
    }
  }
}