{
  "address": "0x235CA26aDDE8eF0Fedf4C7Af0018D8fd1e10B7Fc",
  "abi": [
    {
      "inputs": [],
      "stateMutability": "nonpayable",
      "type": "constructor"
    },
    {
      "anonymous": false,
      "inputs": [
        {
          "indexed": true,
          "internalType": "uint256",
          "name": "executionId",
          "type": "uint256"
        },
        {
          "indexed": false,
          "internalType": "bool",
          "name": "approved",
          "type": "bool"
        }
      ],
      "name": "Approved",
      "type": "event"
    },
    {
      "anonymous": false,
      "inputs": [
        {
          "indexed": true,
          "internalType": "uint256",
          "name": "executionId",
          "type": "uint256"
        },
        {
          "indexed": true,
          "internalType": "address",
          "name": "to",
          "type": "address"
        },
        {
          "indexed": false,
          "internalType": "uint256",
          "name": "value",
          "type": "uint256"
        },
        {
          "indexed": false,
          "internalType": "bytes",
          "name": "data",
          "type": "bytes"
        }
      ],
      "name": "Executed",
      "type": "event"
    },
    {
      "anonymous": false,
      "inputs": [
        {
          "indexed": true,
          "internalType": "uint256",
          "name": "executionId",
          "type": "uint256"
        },
        {
          "indexed": true,
          "internalType": "address",
          "name": "to",
          "type": "address"
        },
        {
          "indexed": false,
          "internalType": "uint256",
          "name": "value",
          "type": "uint256"
        },
        {
          "indexed": false,
          "internalType": "bytes",
          "name": "data",
          "type": "bytes"
        }
      ],
      "name": "ExecutionRequested",
      "type": "event"
    },
    {
      "anonymous": false,
      "inputs": [
        {
          "indexed": true,
          "internalType": "bytes32",
          "name": "key",
          "type": "bytes32"
        },
        {
          "indexed": true,
          "internalType": "uint256",
          "name": "purpose",
          "type": "uint256"
        },
        {
          "indexed": true,
          "internalType": "uint256",
          "name": "keyType",
          "type": "uint256"
        }
      ],
      "name": "KeyAdded",
      "type": "event"
    },
    {
      "anonymous": false,
      "inputs": [
        {
          "indexed": true,
          "internalType": "bytes32",
          "name": "key",
          "type": "bytes32"
        },
        {
          "indexed": true,
          "internalType": "uint256",
          "name": "purpose",
          "type": "uint256"
        },
        {
          "indexed": true,
          "internalType": "uint256",
          "name": "keyType",
          "type": "uint256"
        }
      ],
      "name": "KeyRemoved",
      "type": "event"
    },
    {
      "inputs": [],
      "name": "ACTION_KEY",
      "outputs": [
        {
          "internalType": "uint256",
          "name": "",
          "type": "uint256"
        }
      ],
      "stateMutability": "view",
      "type": "function"
    },
    {
      "inputs": [],
      "name": "CLAIM_SIGNER_KEY",
      "outputs": [
        {
          "internalType": "uint256",
          "name": "",
          "type": "uint256"
        }
      ],
      "stateMutability": "view",
      "type": "function"
    },
    {
      "inputs": [],
      "name": "MANAGEMENT_KEY",
      "outputs": [
        {
          "internalType": "uint256",
          "name": "",
          "type": "uint256"
        }
      ],
      "stateMutability": "view",
      "type": "function"
    },
    {
      "inputs": [
        {
          "internalType": "bytes32",
          "name": "_key",
          "type": "bytes32"
        },
        {
          "internalType": "uint256",
          "name": "_purpose",
          "type": "uint256"
        },
        {
          "internalType": "uint256",
          "name": "_type",
          "type": "uint256"
        }
      ],
      "name": "addKey",
      "outputs": [
        {
          "internalType": "bool",
          "name": "success",
          "type": "bool"
        }
      ],
      "stateMutability": "nonpayable",
      "type": "function"
    },
    {
      "inputs": [
        {
          "internalType": "uint256",
          "name": "_id",
          "type": "uint256"
        },
        {
          "internalType": "bool",
          "name": "_approve",
          "type": "bool"
        }
      ],
      "name": "approve",
      "outputs": [
        {
          "internalType": "bool",
          "name": "success",
          "type": "bool"
        }
      ],
      "stateMutability": "nonpayable",
      "type": "function"
    },
    {
      "inputs": [
        {
          "internalType": "address",
          "name": "_to",
          "type": "address"
        },
        {
          "internalType": "uint256",
          "name": "_value",
          "type": "uint256"
        },
        {
          "internalType": "bytes",
          "name": "_data",
          "type": "bytes"
        }
      ],
      "name": "execute",
      "outputs": [
        {
          "internalType": "uint256",
          "name": "executionId",
          "type": "uint256"
        }
      ],
      "stateMutability": "nonpayable",
      "type": "function"
    },
    {
      "inputs": [],
      "name": "executionNonce",
      "outputs": [
        {
          "internalType": "uint256",
          "name": "",
          "type": "uint256"
        }
      ],
      "stateMutability": "view",
      "type": "function"
    },
    {
      "inputs": [
        {
          "internalType": "uint256",
          "name": "",
          "type": "uint256"
        }
      ],
      "name": "executionRequests",
      "outputs": [
        {
          "internalType": "address",
          "name": "emisor",
          "type": "address"
        },
        {
          "internalType": "address",
          "name": "to",
          "type": "address"
        },
        {
          "internalType": "uint256",
          "name": "value",
          "type": "uint256"
        },
        {
          "internalType": "bytes",
          "name": "data",
          "type": "bytes"
        },
        {
          "internalType": "bool",
          "name": "executed",
          "type": "bool"
        }
      ],
      "stateMutability": "view",
      "type": "function"
    },
    {
      "inputs": [
        {
          "internalType": "bytes32",
          "name": "_key",
          "type": "bytes32"
        }
      ],
      "name": "getKey",
      "outputs": [
        {
          "internalType": "uint256[]",
          "name": "purposes",
          "type": "uint256[]"
        },
        {
          "internalType": "uint256",
          "name": "keyType",
          "type": "uint256"
        },
        {
          "internalType": "bytes32",
          "name": "key",
          "type": "bytes32"
        }
      ],
      "stateMutability": "view",
      "type": "function"
    },
    {
      "inputs": [
        {
          "internalType": "bytes32",
          "name": "_key",
          "type": "bytes32"
        },
        {
          "internalType": "uint256",
          "name": "_purpose",
          "type": "uint256"
        }
      ],
      "name": "keyHasPurpose",
      "outputs": [
        {
          "internalType": "bool",
          "name": "",
          "type": "bool"
        }
      ],
      "stateMutability": "view",
      "type": "function"
    }
  ],
  "transactionHash": "0xbc2aed968b480005e0ad76dc000663e805137ed652db39e60517893e1d7f7e1a",
  "args": [],
  "numDeployments": 1,
  "solcInputHash": "938f6c92e9372f77e9779fbc5a75d789",
  "bytecode": "0x60806040523480156200001157600080fd5b506040516001600160601b03193360601b1660208201526000906034016040516020818303038152906040528051906020012090506200005a816001806200006260201b60201c565b505062000205565b600062000070848462000100565b156200007f57506000620000f9565b60008481526020818152604080832060028101889055805460018181018355828652848620909101889055908101869055868452808352818420805491820181558452918320909101869055518391859187917f480000bb1edad8ca1470381cc334b1917fbd51c6531f3a623ea8e0ec7e38a6e991a45060015b9392505050565b60008281526020818152604080832081518154608094810282018501909352606081018381528594919384928491908401828280156200016057602002820191906000526020600020905b8154815260200190600101908083116200014b575b50505091835250506001820154602082015260029091015460409182015281015190915060000362000197576000915050620001e9565b60005b815151811015620001e2578382600001518281518110620001bf57620001bf620001ef565b602002602001015103620001d957600192505050620001e9565b6001016200019a565b5060009150505b92915050565b634e487b7160e01b600052603260045260246000fd5b610ecb80620002156000396000f3fe608060405234801561001057600080fd5b506004361061008e5760003560e01c806301bd43ef14610093578063058b316c146100af57806312aaac70146100b75780631d381240146100d9578063747442d3146100fc57806375e5598c1461010f578063b61d27f614610117578063c67021871461012a578063d202158d14610132578063e7b7909a14610145575b600080fd5b61009c60035481565b6040519081526020015b60405180910390f35b61009c600181565b6100ca6100c536600461091a565b610169565b6040516100a693929190610933565b6100ec6100e7366004610982565b610205565b60405190151581526020016100a6565b6100ec61010a3660046109ae565b610272565b61009c600281565b61009c6101253660046109f9565b61048e565b61009c600381565b6100ec610140366004610ad2565b6106d6565b61015861015336600461091a565b6107b8565b6040516100a6959493929190610b44565b60008181526020818152604080832081518154608094810282018501909352606081810184815290959485948594928492909184918401828280156101cd57602002820191906000526020600020905b8154815260200190600101908083116101b9575b505050918352505060018201546020808301919091526002909201546040918201528251918301519201519097919650945092505050565b60006102383360405160200161021b9190610b8b565b6040516020818303038152906040528051906020012060016106d6565b61025d5760405162461bcd60e51b815260040161025490610ba3565b60405180910390fd5b610268848484610881565b90505b9392505050565b60006102883360405160200161021b9190610b8b565b806102bf57506102bf336040516020016102a29190610b8b565b6040516020818303038152906040528051906020012060026106d6565b6102db5760405162461bcd60e51b815260040161025490610ba3565b6000838152600260205260409020600481015460ff161561032d5760405162461bcd60e51b815260206004820152600c60248201526b596120656a6563757461646f60a01b6044820152606401610254565b821561044a5760048101805460ff1916600190811790915581015460028201546040516001600160a01b039092169161036a906003850190610c04565b60006040518083038185875af1925050503d80600081146103a7576040519150601f19603f3d011682016040523d82523d6000602084013e6103ac565b606091505b505080925050816103f55760405162461bcd60e51b815260206004820152601360248201527222b93937b91032b71030b83937b130b1b4b7b760691b6044820152606401610254565b600181015460028201546040516001600160a01b039092169186917f1f920dbda597d7bf95035464170fa58d0a4b57f13a1c315ace6793b9f63688b89161044191906003870190610c7a565b60405180910390a35b837fb3932da477fe5d6c8ff2eafef050c0f3a1af18fc07121001482600f36f3715d88460405161047e911515815260200190565b60405180910390a2505b92915050565b600080336040516020016104a29190610b8b565b6040516020818303038152906040528051906020012090506104c58160016106d6565b806104d657506104d68160026106d6565b156105ce576000856001600160a01b031685856040516104f69190610d12565b60006040518083038185875af1925050503d8060008114610533576040519150601f19603f3d011682016040523d82523d6000602084013e610538565b606091505b505090508061057e5760405162461bcd60e51b815260206004820152601260248201527122b93937b91032b71032b532b1bab1b4b7b760711b6044820152606401610254565b856001600160a01b031660007f1f920dbda597d7bf95035464170fa58d0a4b57f13a1c315ace6793b9f63688b887876040516105bb929190610d2e565b60405180910390a360009250505061026b565b600380549060006105de83610d47565b909155506040805160a0810182523381526001600160a01b0388811660208084019182528385018a8152606085018a815260006080870181905288815260029384905296909620855181546001600160a01b03199081169187169190911782559351600182018054909516951694909417909255905190820155915192945091600382019061066d9082610dbf565b50608091909101516004909101805460ff19169115159190911790556040516001600160a01b0386169083907f8afcfabcb00e47a53a8fc3e9f23ff47ee1926194bb1350dd007c50b412a6cee8906106c89088908890610d2e565b60405180910390a35061026b565b600082815260208181526040808320815181546080948102820185019093526060810183815285949193849284919084018282801561073457602002820191906000526020600020905b815481526020019060010190808311610720575b505050918352505060018201546020820152600290910154604091820152810151909150600003610769576000915050610488565b60005b8151518110156107ad57838260000151828151811061078d5761078d610e7f565b6020026020010151036107a557600192505050610488565b60010161076c565b506000949350505050565b600260208190526000918252604090912080546001820154928201546003830180546001600160a01b03938416959093169391926107f590610bca565b80601f016020809104026020016040519081016040528092919081815260200182805461082190610bca565b801561086e5780601f106108435761010080835404028352916020019161086e565b820191906000526020600020905b81548152906001019060200180831161085157829003601f168201915b5050506004909301549192505060ff1685565b600061088d84846106d6565b1561089a5750600061026b565b60008481526020818152604080832060028101889055805460018181018355828652848620909101889055908101869055868452808352818420805491820181558452918320909101869055518391859187917f480000bb1edad8ca1470381cc334b1917fbd51c6531f3a623ea8e0ec7e38a6e991a45060019392505050565b60006020828403121561092c57600080fd5b5035919050565b606080825284519082018190526000906020906080840190828801845b8281101561096c57815184529284019290840190600101610950565b5050506020840195909552505060400152919050565b60008060006060848603121561099757600080fd5b505081359360208301359350604090920135919050565b600080604083850312156109c157600080fd5b82359150602083013580151581146109d857600080fd5b809150509250929050565b634e487b7160e01b600052604160045260246000fd5b600080600060608486031215610a0e57600080fd5b83356001600160a01b0381168114610a2557600080fd5b925060208401359150604084013567ffffffffffffffff80821115610a4957600080fd5b818601915086601f830112610a5d57600080fd5b813581811115610a6f57610a6f6109e3565b604051601f8201601f19908116603f01168101908382118183101715610a9757610a976109e3565b81604052828152896020848701011115610ab057600080fd5b8260208601602083013760006020848301015280955050505050509250925092565b60008060408385031215610ae557600080fd5b50508035926020909101359150565b60005b83811015610b0f578181015183820152602001610af7565b50506000910152565b60008151808452610b30816020860160208601610af4565b601f01601f19169290920160200192915050565b6001600160a01b038681168252851660208201526040810184905260a060608201819052600090610b7790830185610b18565b905082151560808301529695505050505050565b60609190911b6001600160601b031916815260140190565b6020808252600d908201526c4e6f206175746f72697a61646f60981b604082015260600190565b600181811c90821680610bde57607f821691505b602082108103610bfe57634e487b7160e01b600052602260045260246000fd5b50919050565b6000808354610c1281610bca565b60018281168015610c2a5760018114610c3f57610c6e565b60ff1984168752821515830287019450610c6e565b8760005260208060002060005b85811015610c655781548a820152908401908201610c4c565b50505082870194505b50929695505050505050565b828152600060206040602084015260008454610c9581610bca565b8060408701526060600180841660008114610cb75760018114610cd357610d03565b60ff19851660608a0152606084151560051b8a01019550610d03565b89600052602060002060005b85811015610cfa5781548b8201860152908301908801610cdf565b8a016060019650505b50939998505050505050505050565b60008251610d24818460208701610af4565b9190910192915050565b8281526040602082015260006102686040830184610b18565b600060018201610d6757634e487b7160e01b600052601160045260246000fd5b5060010190565b601f821115610dba576000816000526020600020601f850160051c81016020861015610d975750805b601f850160051c820191505b81811015610db657828155600101610da3565b5050505b505050565b815167ffffffffffffffff811115610dd957610dd96109e3565b610ded81610de78454610bca565b84610d6e565b602080601f831160018114610e225760008415610e0a5750858301515b600019600386901b1c1916600185901b178555610db6565b600085815260208120601f198616915b82811015610e5157888601518255948401946001909101908401610e32565b5085821015610e6f5787850151600019600388901b60f8161c191681555b5050505050600190811b01905550565b634e487b7160e01b600052603260045260246000fdfea2646970667358221220e167d5de303ed156f91ab44f1b5c8e6faf5426ae4d9a5ea34ea11373e29f45d664736f6c63430008180033",
  "devdoc": {
    "details": "Contrato para la gestión de identidades y claves en el ecosistema ERC-3643.",
    "kind": "dev",
    "methods": {
      "approve(uint256,bool)": {
        "details": "El dueño aprueba el ID generado por el Claim Issuer para registrar el reclamo [2]."
      },
      "execute(address,uint256,bytes)": {
        "details": "Si el emisor (sin clave Management) llama a esta función,  se crea una solicitud de ejecución pendiente [2]."
      }
    },
    "title": "ONCHAINID (ERC-734)",
    "version": 1
  },
  "userdoc": {
    "kind": "user",
    "methods": {},
    "version": 1
  },
  "storageLayout": {
    "storage": [
      {
        "astId": 214,
        "contract": "contracts/ONCHAINID/ERC-734.sol:KeyManagerIdentity",
        "label": "_keys",
        "offset": 0,
        "slot": "0",
        "type": "t_mapping(t_bytes32,t_struct(Key)198_storage)"
      },
      {
        "astId": 219,
        "contract": "contracts/ONCHAINID/ERC-734.sol:KeyManagerIdentity",
        "label": "_keysByPurpose",
        "offset": 0,
        "slot": "1",
        "type": "t_mapping(t_uint256,t_array(t_bytes32)dyn_storage)"
      },
      {
        "astId": 224,
        "contract": "contracts/ONCHAINID/ERC-734.sol:KeyManagerIdentity",
        "label": "executionRequests",
        "offset": 0,
        "slot": "2",
        "type": "t_mapping(t_uint256,t_struct(ExecutionRequest)209_storage)"
      },
      {
        "astId": 226,
        "contract": "contracts/ONCHAINID/ERC-734.sol:KeyManagerIdentity",
        "label": "executionNonce",
        "offset": 0,
        "slot": "3",
        "type": "t_uint256"
      }
    ],
    "types": {
      "t_address": {
        "encoding": "inplace",
        "label": "address",
        "numberOfBytes": "20"
      },
      "t_array(t_bytes32)dyn_storage": {
        "base": "t_bytes32",
        "encoding": "dynamic_array",
        "label": "bytes32[]",
        "numberOfBytes": "32"
      },
      "t_array(t_uint256)dyn_storage": {
        "base": "t_uint256",
        "encoding": "dynamic_array",
        "label": "uint256[]",
        "numberOfBytes": "32"
      },
      "t_bool": {
        "encoding": "inplace",
        "label": "bool",
        "numberOfBytes": "1"
      },
      "t_bytes32": {
        "encoding": "inplace",
        "label": "bytes32",
        "numberOfBytes": "32"
      },
      "t_bytes_storage": {
        "encoding": "bytes",
        "label": "bytes",
        "numberOfBytes": "32"
      },
      "t_mapping(t_bytes32,t_struct(Key)198_storage)": {
        "encoding": "mapping",
        "key": "t_bytes32",
        "label": "mapping(bytes32 => struct KeyManagerIdentity.Key)",
        "numberOfBytes": "32",
        "value": "t_struct(Key)198_storage"
      },
      "t_mapping(t_uint256,t_array(t_bytes32)dyn_storage)": {
        "encoding": "mapping",
        "key": "t_uint256",
        "label": "mapping(uint256 => bytes32[])",
        "numberOfBytes": "32",
        "value": "t_array(t_bytes32)dyn_storage"
      },
      "t_mapping(t_uint256,t_struct(ExecutionRequest)209_storage)": {
        "encoding": "mapping",
        "key": "t_uint256",
        "label": "mapping(uint256 => struct KeyManagerIdentity.ExecutionRequest)",
        "numberOfBytes": "32",
        "value": "t_struct(ExecutionRequest)209_storage"
      },
      "t_struct(ExecutionRequest)209_storage": {
        "encoding": "inplace",
        "label": "struct KeyManagerIdentity.ExecutionRequest",
        "members": [
          {
            "astId": 200,
            "contract": "contracts/ONCHAINID/ERC-734.sol:KeyManagerIdentity",
            "label": "emisor",
            "offset": 0,
            "slot": "0",
            "type": "t_address"
          },
          {
            "astId": 202,
            "contract": "contracts/ONCHAINID/ERC-734.sol:KeyManagerIdentity",
            "label": "to",
            "offset": 0,
            "slot": "1",
            "type": "t_address"
          },
          {
            "astId": 204,
            "contract": "contracts/ONCHAINID/ERC-734.sol:KeyManagerIdentity",
            "label": "value",
            "offset": 0,
            "slot": "2",
            "type": "t_uint256"
          },
          {
            "astId": 206,
            "contract": "contracts/ONCHAINID/ERC-734.sol:KeyManagerIdentity",
            "label": "data",
            "offset": 0,
            "slot": "3",
            "type": "t_bytes_storage"
          },
          {
            "astId": 208,
            "contract": "contracts/ONCHAINID/ERC-734.sol:KeyManagerIdentity",
            "label": "executed",
            "offset": 0,
            "slot": "4",
            "type": "t_bool"
          }
        ],
        "numberOfBytes": "160"
      },
      "t_struct(Key)198_storage": {
        "encoding": "inplace",
        "label": "struct KeyManagerIdentity.Key",
        "members": [
          {
            "astId": 193,
            "contract": "contracts/ONCHAINID/ERC-734.sol:KeyManagerIdentity",
            "label": "purposes",
            "offset": 0,
            "slot": "0",
            "type": "t_array(t_uint256)dyn_storage"
          },
          {
            "astId": 195,
            "contract": "contracts/ONCHAINID/ERC-734.sol:KeyManagerIdentity",
            "label": "keyType",
            "offset": 0,
            "slot": "1",
            "type": "t_uint256"
          },
          {
            "astId": 197,
            "contract": "contracts/ONCHAINID/ERC-734.sol:KeyManagerIdentity",
            "label": "key",
            "offset": 0,
            "slot": "2",
            "type": "t_bytes32"
          }
        ],
        "numberOfBytes": "96"
      },
      "t_uint256": {
        "encoding": "inplace",
        "label": "uint256",
        "numberOfBytes": "32"
      }
    }
  }
}